{
  "_format": "hh-sol-artifact-1",
  "contractName": "NFTMarket",
  "sourceName": "contracts/NFTMarket.sol",
  "abi": [
    {
      "inputs": [],
      "stateMutability": "nonpayable",
      "type": "constructor"
    },
    {
      "anonymous": false,
      "inputs": [
        {
          "indexed": true,
          "internalType": "address",
          "name": "owner",
          "type": "address"
        },
        {
          "indexed": true,
          "internalType": "address",
          "name": "approved",
          "type": "address"
        },
        {
          "indexed": true,
          "internalType": "uint256",
          "name": "tokenId",
          "type": "uint256"
        }
      ],
      "name": "Approval",
      "type": "event"
    },
    {
      "anonymous": false,
      "inputs": [
        {
          "indexed": true,
          "internalType": "address",
          "name": "owner",
          "type": "address"
        },
        {
          "indexed": true,
          "internalType": "address",
          "name": "operator",
          "type": "address"
        },
        {
          "indexed": false,
          "internalType": "bool",
          "name": "approved",
          "type": "bool"
        }
      ],
      "name": "ApprovalForAll",
      "type": "event"
    },
    {
      "anonymous": false,
      "inputs": [
        {
          "indexed": false,
          "internalType": "uint256",
          "name": "collectionToken",
          "type": "uint256"
        },
        {
          "indexed": false,
          "internalType": "string",
          "name": "tokenURI",
          "type": "string"
        },
        {
          "indexed": false,
          "internalType": "address payable",
          "name": "owner",
          "type": "address"
        },
        {
          "indexed": false,
          "internalType": "uint256",
          "name": "floor_price",
          "type": "uint256"
        },
        {
          "indexed": false,
          "internalType": "address[]",
          "name": "owners",
          "type": "address[]"
        },
        {
          "indexed": false,
          "internalType": "uint256[]",
          "name": "nfts",
          "type": "uint256[]"
        }
      ],
      "name": "CollectionCreated",
      "type": "event"
    },
    {
      "anonymous": false,
      "inputs": [
        {
          "indexed": false,
          "internalType": "uint256",
          "name": "nftToken",
          "type": "uint256"
        },
        {
          "indexed": false,
          "internalType": "address payable",
          "name": "owner",
          "type": "address"
        },
        {
          "indexed": false,
          "internalType": "uint256",
          "name": "price",
          "type": "uint256"
        },
        {
          "indexed": false,
          "internalType": "bool",
          "name": "onSale",
          "type": "bool"
        },
        {
          "indexed": false,
          "internalType": "uint256",
          "name": "likes",
          "type": "uint256"
        }
      ],
      "name": "NFTCreated",
      "type": "event"
    },
    {
      "anonymous": false,
      "inputs": [
        {
          "indexed": true,
          "internalType": "address",
          "name": "from",
          "type": "address"
        },
        {
          "indexed": true,
          "internalType": "address",
          "name": "to",
          "type": "address"
        },
        {
          "indexed": true,
          "internalType": "uint256",
          "name": "tokenId",
          "type": "uint256"
        }
      ],
      "name": "Transfer",
      "type": "event"
    },
    {
      "inputs": [
        {
          "internalType": "address",
          "name": "newOwner",
          "type": "address"
        },
        {
          "internalType": "uint256",
          "name": "collectionToken",
          "type": "uint256"
        }
      ],
      "name": "addOwner",
      "outputs": [],
      "stateMutability": "nonpayable",
      "type": "function"
    },
    {
      "inputs": [
        {
          "internalType": "address",
          "name": "to",
          "type": "address"
        },
        {
          "internalType": "uint256",
          "name": "tokenId",
          "type": "uint256"
        }
      ],
      "name": "approve",
      "outputs": [],
      "stateMutability": "nonpayable",
      "type": "function"
    },
    {
      "inputs": [
        {
          "internalType": "address",
          "name": "owner",
          "type": "address"
        }
      ],
      "name": "balanceOf",
      "outputs": [
        {
          "internalType": "uint256",
          "name": "",
          "type": "uint256"
        }
      ],
      "stateMutability": "view",
      "type": "function"
    },
    {
      "inputs": [
        {
          "internalType": "uint256",
          "name": "NFTToken",
          "type": "uint256"
        }
      ],
      "name": "buyNFT",
      "outputs": [],
      "stateMutability": "payable",
      "type": "function"
    },
    {
      "inputs": [
        {
          "internalType": "string",
          "name": "tokenURI",
          "type": "string"
        }
      ],
      "name": "createCollection",
      "outputs": [],
      "stateMutability": "payable",
      "type": "function"
    },
    {
      "inputs": [
        {
          "internalType": "string",
          "name": "tokenURI",
          "type": "string"
        },
        {
          "internalType": "uint256",
          "name": "price",
          "type": "uint256"
        },
        {
          "internalType": "uint256",
          "name": "collectionToken",
          "type": "uint256"
        }
      ],
      "name": "createNFTItem",
      "outputs": [],
      "stateMutability": "payable",
      "type": "function"
    },
    {
      "inputs": [],
      "name": "fetchMarketTransactions",
      "outputs": [
        {
          "components": [
            {
              "internalType": "uint256",
              "name": "transactionId",
              "type": "uint256"
            },
            {
              "internalType": "uint256",
              "name": "tokenId",
              "type": "uint256"
            },
            {
              "internalType": "address payable",
              "name": "seller",
              "type": "address"
            },
            {
              "internalType": "address payable",
              "name": "buyer",
              "type": "address"
            },
            {
              "internalType": "uint256",
              "name": "price",
              "type": "uint256"
            }
          ],
          "internalType": "struct NFTMarket.MarketTransaction[]",
          "name": "",
          "type": "tuple[]"
        }
      ],
      "stateMutability": "view",
      "type": "function"
    },
    {
      "inputs": [
        {
          "internalType": "uint256",
          "name": "tokenId",
          "type": "uint256"
        }
      ],
      "name": "getApproved",
      "outputs": [
        {
          "internalType": "address",
          "name": "",
          "type": "address"
        }
      ],
      "stateMutability": "view",
      "type": "function"
    },
    {
      "inputs": [
        {
          "internalType": "uint256",
          "name": "collectionToken",
          "type": "uint256"
        }
      ],
      "name": "getCollection",
      "outputs": [
        {
          "components": [
            {
              "internalType": "uint256",
              "name": "collectionToken",
              "type": "uint256"
            },
            {
              "internalType": "string",
              "name": "tokenURI",
              "type": "string"
            },
            {
              "internalType": "address payable",
              "name": "creator",
              "type": "address"
            },
            {
              "internalType": "uint256",
              "name": "floor_price",
              "type": "uint256"
            },
            {
              "internalType": "address[]",
              "name": "owners",
              "type": "address[]"
            },
            {
              "internalType": "uint256[]",
              "name": "nfts",
              "type": "uint256[]"
            }
          ],
          "internalType": "struct NFTMarket.Collection",
          "name": "",
          "type": "tuple"
        }
      ],
      "stateMutability": "view",
      "type": "function"
    },
    {
      "inputs": [],
      "name": "getCollectionByOwner",
      "outputs": [
        {
          "components": [
            {
              "internalType": "uint256",
              "name": "collectionToken",
              "type": "uint256"
            },
            {
              "internalType": "string",
              "name": "tokenURI",
              "type": "string"
            },
            {
              "internalType": "address payable",
              "name": "creator",
              "type": "address"
            },
            {
              "internalType": "uint256",
              "name": "floor_price",
              "type": "uint256"
            },
            {
              "internalType": "address[]",
              "name": "owners",
              "type": "address[]"
            },
            {
              "internalType": "uint256[]",
              "name": "nfts",
              "type": "uint256[]"
            }
          ],
          "internalType": "struct NFTMarket.Collection[]",
          "name": "",
          "type": "tuple[]"
        }
      ],
      "stateMutability": "view",
      "type": "function"
    },
    {
      "inputs": [],
      "name": "getCollections",
      "outputs": [
        {
          "components": [
            {
              "internalType": "uint256",
              "name": "collectionToken",
              "type": "uint256"
            },
            {
              "internalType": "string",
              "name": "tokenURI",
              "type": "string"
            },
            {
              "internalType": "address payable",
              "name": "creator",
              "type": "address"
            },
            {
              "internalType": "uint256",
              "name": "floor_price",
              "type": "uint256"
            },
            {
              "internalType": "address[]",
              "name": "owners",
              "type": "address[]"
            },
            {
              "internalType": "uint256[]",
              "name": "nfts",
              "type": "uint256[]"
            }
          ],
          "internalType": "struct NFTMarket.Collection[]",
          "name": "",
          "type": "tuple[]"
        }
      ],
      "stateMutability": "view",
      "type": "function"
    },
    {
      "inputs": [
        {
          "internalType": "uint256",
          "name": "NFTToken",
          "type": "uint256"
        }
      ],
      "name": "getNFT",
      "outputs": [
        {
          "components": [
            {
              "internalType": "uint256",
              "name": "nftToken",
              "type": "uint256"
            },
            {
              "internalType": "address payable",
              "name": "owner",
              "type": "address"
            },
            {
              "internalType": "uint256",
              "name": "price",
              "type": "uint256"
            },
            {
              "internalType": "bool",
              "name": "onSale",
              "type": "bool"
            },
            {
              "internalType": "address[]",
              "name": "likes",
              "type": "address[]"
            }
          ],
          "internalType": "struct NFTMarket.NFT",
          "name": "",
          "type": "tuple"
        }
      ],
      "stateMutability": "view",
      "type": "function"
    },
    {
      "inputs": [
        {
          "internalType": "uint256",
          "name": "_CollectionToken",
          "type": "uint256"
        }
      ],
      "name": "getNFTByCollection",
      "outputs": [
        {
          "components": [
            {
              "internalType": "uint256",
              "name": "nftToken",
              "type": "uint256"
            },
            {
              "internalType": "address payable",
              "name": "owner",
              "type": "address"
            },
            {
              "internalType": "uint256",
              "name": "price",
              "type": "uint256"
            },
            {
              "internalType": "bool",
              "name": "onSale",
              "type": "bool"
            },
            {
              "internalType": "address[]",
              "name": "likes",
              "type": "address[]"
            }
          ],
          "internalType": "struct NFTMarket.NFT[]",
          "name": "",
          "type": "tuple[]"
        }
      ],
      "stateMutability": "view",
      "type": "function"
    },
    {
      "inputs": [],
      "name": "getNFTbyOwner",
      "outputs": [
        {
          "components": [
            {
              "internalType": "uint256",
              "name": "nftToken",
              "type": "uint256"
            },
            {
              "internalType": "address payable",
              "name": "owner",
              "type": "address"
            },
            {
              "internalType": "uint256",
              "name": "price",
              "type": "uint256"
            },
            {
              "internalType": "bool",
              "name": "onSale",
              "type": "bool"
            },
            {
              "internalType": "address[]",
              "name": "likes",
              "type": "address[]"
            }
          ],
          "internalType": "struct NFTMarket.NFT[]",
          "name": "",
          "type": "tuple[]"
        }
      ],
      "stateMutability": "view",
      "type": "function"
    },
    {
      "inputs": [],
      "name": "getNFTs",
      "outputs": [
        {
          "components": [
            {
              "internalType": "uint256",
              "name": "nftToken",
              "type": "uint256"
            },
            {
              "internalType": "address payable",
              "name": "owner",
              "type": "address"
            },
            {
              "internalType": "uint256",
              "name": "price",
              "type": "uint256"
            },
            {
              "internalType": "bool",
              "name": "onSale",
              "type": "bool"
            },
            {
              "internalType": "address[]",
              "name": "likes",
              "type": "address[]"
            }
          ],
          "internalType": "struct NFTMarket.NFT[]",
          "name": "",
          "type": "tuple[]"
        }
      ],
      "stateMutability": "view",
      "type": "function"
    },
    {
      "inputs": [
        {
          "internalType": "address",
          "name": "owner",
          "type": "address"
        },
        {
          "internalType": "address",
          "name": "operator",
          "type": "address"
        }
      ],
      "name": "isApprovedForAll",
      "outputs": [
        {
          "internalType": "bool",
          "name": "",
          "type": "bool"
        }
      ],
      "stateMutability": "view",
      "type": "function"
    },
    {
      "inputs": [],
      "name": "name",
      "outputs": [
        {
          "internalType": "string",
          "name": "",
          "type": "string"
        }
      ],
      "stateMutability": "view",
      "type": "function"
    },
    {
      "inputs": [
        {
          "internalType": "uint256",
          "name": "NFTToken",
          "type": "uint256"
        }
      ],
      "name": "numberOfLikes",
      "outputs": [
        {
          "internalType": "uint256",
          "name": "",
          "type": "uint256"
        }
      ],
      "stateMutability": "view",
      "type": "function"
    },
    {
      "inputs": [
        {
          "internalType": "uint256",
          "name": "tokenId",
          "type": "uint256"
        }
      ],
      "name": "ownerOf",
      "outputs": [
        {
          "internalType": "address",
          "name": "",
          "type": "address"
        }
      ],
      "stateMutability": "view",
      "type": "function"
    },
    {
      "inputs": [
        {
          "internalType": "address",
          "name": "from",
          "type": "address"
        },
        {
          "internalType": "address",
          "name": "to",
          "type": "address"
        },
        {
          "internalType": "uint256",
          "name": "tokenId",
          "type": "uint256"
        }
      ],
      "name": "safeTransferFrom",
      "outputs": [],
      "stateMutability": "nonpayable",
      "type": "function"
    },
    {
      "inputs": [
        {
          "internalType": "address",
          "name": "from",
          "type": "address"
        },
        {
          "internalType": "address",
          "name": "to",
          "type": "address"
        },
        {
          "internalType": "uint256",
          "name": "tokenId",
          "type": "uint256"
        },
        {
          "internalType": "bytes",
          "name": "_data",
          "type": "bytes"
        }
      ],
      "name": "safeTransferFrom",
      "outputs": [],
      "stateMutability": "nonpayable",
      "type": "function"
    },
    {
      "inputs": [
        {
          "internalType": "address",
          "name": "operator",
          "type": "address"
        },
        {
          "internalType": "bool",
          "name": "approved",
          "type": "bool"
        }
      ],
      "name": "setApprovalForAll",
      "outputs": [],
      "stateMutability": "nonpayable",
      "type": "function"
    },
    {
      "inputs": [
        {
          "internalType": "uint256",
          "name": "NFTToken",
          "type": "uint256"
        }
      ],
      "name": "setLike",
      "outputs": [],
      "stateMutability": "nonpayable",
      "type": "function"
    },
    {
      "inputs": [
        {
          "internalType": "uint256",
          "name": "price",
          "type": "uint256"
        },
        {
          "internalType": "uint256",
          "name": "NFTToken",
          "type": "uint256"
        }
      ],
      "name": "setNFTPrice",
      "outputs": [],
      "stateMutability": "nonpayable",
      "type": "function"
    },
    {
      "inputs": [
        {
          "internalType": "uint256",
          "name": "NFTToken",
          "type": "uint256"
        },
        {
          "internalType": "bool",
          "name": "_state",
          "type": "bool"
        }
      ],
      "name": "setOnSaleNFT",
      "outputs": [],
      "stateMutability": "nonpayable",
      "type": "function"
    },
    {
      "inputs": [
        {
          "internalType": "bytes4",
          "name": "interfaceId",
          "type": "bytes4"
        }
      ],
      "name": "supportsInterface",
      "outputs": [
        {
          "internalType": "bool",
          "name": "",
          "type": "bool"
        }
      ],
      "stateMutability": "view",
      "type": "function"
    },
    {
      "inputs": [],
      "name": "symbol",
      "outputs": [
        {
          "internalType": "string",
          "name": "",
          "type": "string"
        }
      ],
      "stateMutability": "view",
      "type": "function"
    },
    {
      "inputs": [
        {
          "internalType": "uint256",
          "name": "tokenId",
          "type": "uint256"
        }
      ],
      "name": "tokenURI",
      "outputs": [
        {
          "internalType": "string",
          "name": "",
          "type": "string"
        }
      ],
      "stateMutability": "view",
      "type": "function"
    },
    {
      "inputs": [
        {
          "internalType": "address",
          "name": "from",
          "type": "address"
        },
        {
          "internalType": "address",
          "name": "to",
          "type": "address"
        },
        {
          "internalType": "uint256",
          "name": "tokenId",
          "type": "uint256"
        }
      ],
      "name": "transferFrom",
      "outputs": [],
      "stateMutability": "nonpayable",
      "type": "function"
    }
  ],
  "bytecode": "0x60806040523480156200001157600080fd5b50604080518082018252600b81526a46616c63306e204e66747360a81b6020808301918252835180850190945260048452631351551560e21b908401528151919291620000619160009162000092565b5080516200007790600190602084019062000092565b5050600a80546001600160a01b031916331790555062000175565b828054620000a09062000138565b90600052602060002090601f016020900481019282620000c457600085556200010f565b82601f10620000df57805160ff19168380011785556200010f565b828001600101855582156200010f579182015b828111156200010f578251825591602001919060010190620000f2565b506200011d92915062000121565b5090565b5b808211156200011d576000815560010162000122565b600181811c908216806200014d57607f821691505b602082108114156200016f57634e487b7160e01b600052602260045260246000fd5b50919050565b613db280620001856000396000f3fe6080604052600436106101c25760003560e01c806354bfca28116100f757806395d89b4111610095578063c87b56dd11610064578063c87b56dd14610509578063cdb591a914610529578063e74065581461053e578063e985e9c51461055e57600080fd5b806395d89b41146104925780639b2bf71f146104a7578063a22cb465146104c9578063b88d4fde146104e957600080fd5b806361f7b059116100d157806361f7b059146104045780636352211e1461042457806370a0823114610444578063919bd8211461047257600080fd5b806354bfca2814610395578063576f7ea7146103aa5780635a1f3c28146103d757600080fd5b80633cc38f5c1161016457806346e635861161013e57806346e635861461032d5780634c4da7351461034f57806351ed82881461036f578063541daffe1461038257600080fd5b80633cc38f5c146102cd5780633f2017c4146102ed57806342842e0e1461030d57600080fd5b8063081812fc116101a0578063081812fc14610233578063095ea7b31461026b578063227212f21461028b57806323b872dd146102ad57600080fd5b806301ffc9a7146101c7578063059dfe13146101fc57806306fdde0314610211575b600080fd5b3480156101d357600080fd5b506101e76101e2366004613680565b61057e565b60405190151581526020015b60405180910390f35b61020f61020a3660046136b8565b6105d0565b005b34801561021d57600080fd5b5061022661077e565b6040516101f39190613a8b565b34801561023f57600080fd5b5061025361024e366004613737565b610810565b6040516001600160a01b0390911681526020016101f3565b34801561027757600080fd5b5061020f610286366004613657565b61089d565b34801561029757600080fd5b506102a06109b3565b6040516101f39190613a37565b3480156102b957600080fd5b5061020f6102c836600461357a565b610b2c565b3480156102d957600080fd5b5061020f6102e8366004613657565b610b5d565b3480156102f957600080fd5b5061020f61030836600461374f565b610c3f565b34801561031957600080fd5b5061020f61032836600461357a565b610cf4565b34801561033957600080fd5b50610342610d0f565b6040516101f3919061395a565b34801561035b57600080fd5b506102a061036a366004613737565b610f8a565b61020f61037d366004613737565b6111af565b61020f6103903660046136eb565b61143b565b3480156103a157600080fd5b506102a06118bf565b3480156103b657600080fd5b506103ca6103c5366004613737565b611ae6565b6040516101f39190613bb2565b3480156103e357600080fd5b506103f76103f2366004613737565b611bcd565b6040516101f39190613b9f565b34801561041057600080fd5b5061020f61041f366004613737565b611db6565b34801561043057600080fd5b5061025361043f366004613737565b611f71565b34801561045057600080fd5b5061046461045f36600461352e565b611fe8565b6040519081526020016101f3565b34801561047e57600080fd5b5061046461048d366004613737565b61206f565b34801561049e57600080fd5b506102266120b3565b3480156104b357600080fd5b506104bc6120c2565b6040516101f391906139bb565b3480156104d557600080fd5b5061020f6104e436600461362e565b61222b565b3480156104f557600080fd5b5061020f6105043660046135b5565b612236565b34801561051557600080fd5b50610226610524366004613737565b61226e565b34801561053557600080fd5b506103426123e5565b34801561054a57600080fd5b5061020f610559366004613771565b6127a9565b34801561056a57600080fd5b506101e7610579366004613548565b612917565b60006001600160e01b031982166380ac58cd60e01b14806105af57506001600160e01b03198216635b5e139f60e01b145b806105ca57506301ffc9a760e01b6001600160e01b03198316145b92915050565b60006105da612945565b90506040518060c00160405280828152602001838152602001336001600160a01b0316815260200160008152602001600067ffffffffffffffff81111561063157634e487b7160e01b600052604160045260246000fd5b60405190808252806020026020018201604052801561065a578160200160208202803683370190505b508152602001600060405190808252806020026020018201604052801561068b578160200160208202803683370190505b5090526000828152600c602090815260409091208251815582820151805191926106bd926001850192909101906132cc565b5060408201516002820180546001600160a01b0319166001600160a01b039092169190911790556060820151600382015560808201518051610709916004840191602090910190613350565b5060a082015180516107259160058401916020909101906133a5565b505060408051600080825260208201818152828401938490527f69a3467913c19940fbfa57b50728fbe6f672c8cc4d65931f1a4f56e838e7a56b9450610772938693889333939092613bc5565b60405180910390a15050565b60606000805461078d90613cbd565b80601f01602080910402602001604051908101604052809291908181526020018280546107b990613cbd565b80156108065780601f106107db57610100808354040283529160200191610806565b820191906000526020600020905b8154815290600101906020018083116107e957829003601f168201915b5050505050905090565b600061081b82612960565b6108815760405162461bcd60e51b815260206004820152602c60248201527f4552433732313a20617070726f76656420717565727920666f72206e6f6e657860448201526b34b9ba32b73a103a37b5b2b760a11b60648201526084015b60405180910390fd5b506000908152600460205260409020546001600160a01b031690565b60006108a882611f71565b9050806001600160a01b0316836001600160a01b031614156109165760405162461bcd60e51b815260206004820152602160248201527f4552433732313a20617070726f76616c20746f2063757272656e74206f776e656044820152603960f91b6064820152608401610878565b336001600160a01b038216148061093257506109328133612917565b6109a45760405162461bcd60e51b815260206004820152603860248201527f4552433732313a20617070726f76652063616c6c6572206973206e6f74206f7760448201527f6e6572206e6f7220617070726f76656420666f7220616c6c00000000000000006064820152608401610878565b6109ae838361297d565b505050565b606060006109c060075490565b905060008167ffffffffffffffff8111156109eb57634e487b7160e01b600052604160045260246000fd5b604051908082528060200260200182016040528015610a2457816020015b610a116133df565b815260200190600190039081610a095790505b50905060015b828111610b25576000818152600b6020908152604091829020825160a0810184528154815260018201546001600160a01b031681840152600282015481850152600382015460ff16151560608201526004820180548551818602810186019096528086529194929360808601939290830182828015610ad257602002820191906000526020600020905b81546001600160a01b03168152600190910190602001808311610ab4575b50505050508152505082600183610ae99190613c7a565b81518110610b0757634e487b7160e01b600052603260045260246000fd5b60200260200101819052508080610b1d90613cf2565b915050610a2a565b5092915050565b610b3633826129eb565b610b525760405162461bcd60e51b815260040161087890613b4e565b6109ae838383612ab4565b6000818152600c60205260409020548190610b8a5760405162461bcd60e51b815260040161087890613b17565b6000828152600c60205260409020600201546001600160a01b03163314610bfd5760405162461bcd60e51b815260206004820152602160248201527f596f7520617265206e6f74206120636f6c6c656374696f6e2063726561746f726044820152602160f81b6064820152608401610878565b506000908152600c602090815260408220600401805460018101825590835291200180546001600160a01b0319166001600160a01b0392909216919091179055565b6000828152600b60205260409020548290610c6c5760405162461bcd60e51b815260040161087890613a9e565b6000838152600b602052604090206001015483906001600160a01b03163314610ccf5760405162461bcd60e51b81526020600482015260156024820152742cb7ba9030b932903737ba103a34329037bbb732b960591b6044820152606401610878565b50506000918252600b6020526040909120600301805460ff1916911515919091179055565b6109ae83838360405180602001604052806000815250612236565b60606000610d1c60085490565b905060008167ffffffffffffffff811115610d4757634e487b7160e01b600052604160045260246000fd5b604051908082528060200260200182016040528015610d8057816020015b610d6d613419565b815260200190600190039081610d655790505b50905060015b828111610b25576000600c60008381526020019081526020016000209050806040518060c001604052908160008201548152602001600182018054610dca90613cbd565b80601f0160208091040260200160405190810160405280929190818152602001828054610df690613cbd565b8015610e435780601f10610e1857610100808354040283529160200191610e43565b820191906000526020600020905b815481529060010190602001808311610e2657829003601f168201915b505050505081526020016002820160009054906101000a90046001600160a01b03166001600160a01b03166001600160a01b031681526020016003820154815260200160048201805480602002602001604051908101604052809291908181526020018280548015610ede57602002820191906000526020600020905b81546001600160a01b03168152600190910190602001808311610ec0575b5050505050815260200160058201805480602002602001604051908101604052809291908181526020018280548015610f3657602002820191906000526020600020905b815481526020019060010190808311610f22575b50505050508152505083600184610f4d9190613c7a565b81518110610f6b57634e487b7160e01b600052603260045260246000fd5b6020026020010181905250508080610f8290613cf2565b915050610d86565b6000818152600c60205260409020546060908290610fba5760405162461bcd60e51b815260040161087890613b17565b6000838152600c602090815260408083206005018054825181850281018501909352808352919290919083018282801561101357602002820191906000526020600020905b815481526020019060010190808311610fff575b505050505090506000815167ffffffffffffffff81111561104457634e487b7160e01b600052604160045260246000fd5b60405190808252806020026020018201604052801561107d57816020015b61106a6133df565b8152602001906001900390816110625790505b50905060005b82518110156111a457600b60008483815181106110b057634e487b7160e01b600052603260045260246000fd5b6020908102919091018101518252818101929092526040908101600020815160a0810183528154815260018201546001600160a01b031681850152600282015481840152600382015460ff161515606082015260048201805484518187028101870190955280855291949293608086019390929083018282801561115d57602002820191906000526020600020905b81546001600160a01b0316815260019091019060200180831161113f575b50505050508152505082828151811061118657634e487b7160e01b600052603260045260246000fd5b6020026020010181905250808061119c90613cf2565b915050611083565b509250505b50919050565b6000818152600b602052604090205481906111dc5760405162461bcd60e51b815260040161087890613a9e565b6000828152600b60205260409020600101546001600160a01b03163314156112465760405162461bcd60e51b815260206004820152601a60248201527f596f752061726520616c726561647920746865206f776e6572210000000000006044820152606401610878565b6000828152600b602052604090206003015460ff16151560011461129f5760405162461bcd60e51b815260206004820152601060248201526f4e4654206e6f7420666f722073616c6560801b6044820152606401610878565b6000828152600b602052604090206002015434146112ff5760405162461bcd60e51b815260206004820152601b60248201527f4e6f742074686520726967687420707269636520746f2073656c6c00000000006044820152606401610878565b6000828152600b60205260408082206001015490516001600160a01b03909116913480156108fc02929091818181858888f193505050501561143757611349600980546001019055565b600061135460095490565b6040805160a08101825282815260208082018781526000888152600b808452858220600180820180546001600160a01b03908116898b019081523360608b0181815260029687015460808d019081528e8a52600d8c529c89209b518c559851948b01949094555193890180549482166001600160a01b031995861617905595516003890180549188169190941617909255965160049096019590955590899052909152905492935061140892169085612ab4565b506000828152600b602052604090206001810180546001600160a01b03191633179055600301805460ff191690555b5050565b6000818152600c60209081526040808320815160c08101909252805482526001810180548695948401919061146f90613cbd565b80601f016020809104026020016040519081016040528092919081815260200182805461149b90613cbd565b80156114e85780601f106114bd576101008083540402835291602001916114e8565b820191906000526020600020905b8154815290600101906020018083116114cb57829003601f168201915b505050505081526020016002820160009054906101000a90046001600160a01b03166001600160a01b03166001600160a01b03168152602001600382015481526020016004820180548060200260200160405190810160405280929190818152602001828054801561158357602002820191906000526020600020905b81546001600160a01b03168152600190910190602001808311611565575b50505050508152602001600582018054806020026020016040519081016040528092919081815260200182805480156115db57602002820191906000526020600020905b8154815260200190600101908083116115c7575b50505050508152505090506000805b826080015151811015611653578260800151818151811061161b57634e487b7160e01b600052603260045260246000fd5b60200260200101516001600160a01b0316336001600160a01b0316141561164157600191505b8061164b81613cf2565b9150506115ea565b506001811515148061167a575081604001516001600160a01b0316336001600160a01b0316145b6116c65760405162461bcd60e51b815260206004820152601960248201527f596f7520646f6e27742068617665207065726d697373696f6e000000000000006044820152606401610878565b600085116117165760405162461bcd60e51b815260206004820152601c60248201527f5072696365206d757374206265206174206c65617374203120776569000000006044820152606401610878565b600061172187612c50565b6040805160a08101825282815233602082015290810188905260016060820152909150608081016000604051908082528060200260200182016040528015611773578160200160208202803683370190505b5090526000828152600b602090815260409182902083518155838201516001820180546001600160a01b0319166001600160a01b03909216919091179055918301516002830155606083015160038301805460ff1916911515919091179055608083015180516117e99260048501920190613350565b5050506000858152600c6020908152604082206005810180546001810182559084529183209091018390559086905260030154611839576000858152600c60205260409020600301869055611868565b6000858152600c60205260409020600301546118559087612c81565b6000868152600c60205260409020600301555b6040805182815233602082015290810187905260006060820181905260808201527facb89a16b5528db52c0b2d7d6359ac7b3c333db459853d3009feaeff5d88b9929060a00160405180910390a150505050505050565b606060006118cc60075490565b905060008060005b8381101561192f5733600b60006118ec846001613c4e565b81526020810191909152604001600020600101546001600160a01b0316141561191d5761191a600184613c4e565b92505b8061192781613cf2565b9150506118d4565b5060008267ffffffffffffffff81111561195957634e487b7160e01b600052604160045260246000fd5b60405190808252806020026020018201604052801561199257816020015b61197f6133df565b8152602001906001900390816119775790505b50905060005b84811015611add5733600b60006119b0846001613c4e565b81526020810191909152604001600020600101546001600160a01b03161415611acb5760006119e0826001613c4e565b6000818152600b6020908152604091829020825160a0810184528154815260018201546001600160a01b031681840152600282015481850152600382015460ff16151560608201526004820180548551818602810186019096528086529596509194909385936080860193919290830182828015611a8757602002820191906000526020600020905b81546001600160a01b03168152600190910190602001808311611a69575b505050505081525050848681518110611ab057634e487b7160e01b600052603260045260246000fd5b6020908102919091010152611ac6600186613c4e565b945050505b80611ad581613cf2565b915050611998565b50949350505050565b611aee6133df565b6000828152600b60205260409020548290611b1b5760405162461bcd60e51b815260040161087890613a9e565b6000838152600b6020908152604091829020825160a0810184528154815260018201546001600160a01b031681840152600282015481850152600382015460ff16151560608201526004820180548551818602810186019096528086529194929360808601939290830182828015611bbc57602002820191906000526020600020905b81546001600160a01b03168152600190910190602001808311611b9e575b505050505081525050915050919050565b611bd5613419565b6000828152600c60205260409020548290611c025760405162461bcd60e51b815260040161087890613b17565b600c60008481526020019081526020016000206040518060c001604052908160008201548152602001600182018054611c3a90613cbd565b80601f0160208091040260200160405190810160405280929190818152602001828054611c6690613cbd565b8015611cb35780601f10611c8857610100808354040283529160200191611cb3565b820191906000526020600020905b815481529060010190602001808311611c9657829003601f168201915b505050505081526020016002820160009054906101000a90046001600160a01b03166001600160a01b03166001600160a01b031681526020016003820154815260200160048201805480602002602001604051908101604052809291908181526020018280548015611d4e57602002820191906000526020600020905b81546001600160a01b03168152600190910190602001808311611d30575b5050505050815260200160058201805480602002602001604051908101604052809291908181526020018280548015611bbc57602002820191906000526020600020905b815481526020019060010190808311611d9257505050505081525050915050919050565b6000818152600b60205260409020548190611de35760405162461bcd60e51b815260040161087890613a9e565b6000828152600b60205260409020600101546001600160a01b0316331415611e645760405162461bcd60e51b815260206004820152602e60248201527f596f752061726520746865206f776e65722120796f752063616e2774206c696b60448201526d19481e5bdd5c881bdddb8813919560921b6064820152608401610878565b6000805b6000848152600b6020526040902060040154811015611f35576000848152600b60205260409020600401805433919083908110611eb557634e487b7160e01b600052603260045260246000fd5b6000918252602090912001546001600160a01b03161415611f23576000848152600b6020526040902060040180546001935082908110611f0557634e487b7160e01b600052603260045260246000fd5b600091825260209091200180546001600160a01b0319169055611f35565b80611f2d81613cf2565b915050611e68565b50806109ae576000838152600b602090815260408220600401805460018101825590835291200180546001600160a01b03191633179055505050565b6000818152600260205260408120546001600160a01b0316806105ca5760405162461bcd60e51b815260206004820152602960248201527f4552433732313a206f776e657220717565727920666f72206e6f6e657869737460448201526832b73a103a37b5b2b760b91b6064820152608401610878565b60006001600160a01b0382166120535760405162461bcd60e51b815260206004820152602a60248201527f4552433732313a2062616c616e636520717565727920666f7220746865207a65604482015269726f206164647265737360b01b6064820152608401610878565b506001600160a01b031660009081526003602052604090205490565b6000818152600b6020526040812054829061209c5760405162461bcd60e51b815260040161087890613a9e565b50506000908152600b602052604090206004015490565b60606001805461078d90613cbd565b606060006120cf60095490565b905060008167ffffffffffffffff8111156120fa57634e487b7160e01b600052604160045260246000fd5b60405190808252806020026020018201604052801561216f57816020015b61215c6040518060a00160405280600081526020016000815260200160006001600160a01b0316815260200160006001600160a01b03168152602001600081525090565b8152602001906001900390816121185790505b50905060005b82811015610b25576000600d8161218d846001613c4e565b81526020808201929092526040908101600020815160a0810183528154815260018201549381019390935260028101546001600160a01b0390811692840192909252600381015490911660608301526004015460808201528351909150819084908490811061220c57634e487b7160e01b600052603260045260246000fd5b602002602001018190525050808061222390613cf2565b915050612175565b611437338383612c9a565b61224033836129eb565b61225c5760405162461bcd60e51b815260040161087890613b4e565b61226884848484612d69565b50505050565b606061227982612960565b6122df5760405162461bcd60e51b815260206004820152603160248201527f45524337323155524953746f726167653a2055524920717565727920666f72206044820152703737b732bc34b9ba32b73a103a37b5b2b760791b6064820152608401610878565b600082815260066020526040812080546122f890613cbd565b80601f016020809104026020016040519081016040528092919081815260200182805461232490613cbd565b80156123715780601f1061234657610100808354040283529160200191612371565b820191906000526020600020905b81548152906001019060200180831161235457829003601f168201915b50505050509050600061238f60408051602081019091526000815290565b90508051600014156123a2575092915050565b8151156123d45780826040516020016123bc9291906138ee565b60405160208183030381529060405292505050919050565b6123dd84612d9c565b949350505050565b606060006123f260085490565b905060008060005b838110156124de57612484600c6000612414846001613c4e565b815260200190815260200160002060040180548060200260200160405190810160405280929190818152602001828054801561247957602002820191906000526020600020905b81546001600160a01b0316815260019091019060200180831161245b575b505050505033612e73565b806124b9575033600c600061249a846001613c4e565b81526020810191909152604001600020600201546001600160a01b0316145b156124cc576124c9600184613c4e565b92505b806124d681613cf2565b9150506123fa565b5060008267ffffffffffffffff81111561250857634e487b7160e01b600052604160045260246000fd5b60405190808252806020026020018201604052801561254157816020015b61252e613419565b8152602001906001900390816125265790505b50905060005b84811015611add57612561600c6000612414846001613c4e565b80612596575033600c6000612577846001613c4e565b81526020810191909152604001600020600201546001600160a01b0316145b156127975760006125a8826001613c4e565b90506000600c60008381526020019081526020016000209050806040518060c0016040529081600082015481526020016001820180546125e790613cbd565b80601f016020809104026020016040519081016040528092919081815260200182805461261390613cbd565b80156126605780601f1061263557610100808354040283529160200191612660565b820191906000526020600020905b81548152906001019060200180831161264357829003601f168201915b505050505081526020016002820160009054906101000a90046001600160a01b03166001600160a01b03166001600160a01b0316815260200160038201548152602001600482018054806020026020016040519081016040528092919081815260200182805480156126fb57602002820191906000526020600020905b81546001600160a01b031681526001909101906020018083116126dd575b505050505081526020016005820180548060200260200160405190810160405280929190818152602001828054801561275357602002820191906000526020600020905b81548152602001906001019080831161273f575b50505050508152505084868151811061277c57634e487b7160e01b600052603260045260246000fd5b6020908102919091010152612792600186613c4e565b945050505b806127a181613cf2565b915050612547565b6000818152600b602052604090205481906127d65760405162461bcd60e51b815260040161087890613a9e565b6000828152600b602052604090206001015482906001600160a01b031633146128395760405162461bcd60e51b81526020600482015260156024820152742cb7ba9030b932903737ba103a34329037bbb732b960591b6044820152606401610878565b600084116128895760405162461bcd60e51b815260206004820152601c60248201527f5072696365206d757374206265206174206c65617374203120776569000000006044820152606401610878565b6000838152600b602052604090206003015460ff16156129015760405162461bcd60e51b815260206004820152602d60248201527f596f752063616e277420736574207072696365207768696c6520746865204e4660448201526c54206973206f6e2073616c652160981b6064820152608401610878565b50506000908152600b6020526040902060020155565b6001600160a01b03918216600090815260056020908152604080832093909416825291909152205460ff1690565b6000612955600880546001019055565b60006105ca60085490565b6000908152600260205260409020546001600160a01b0316151590565b600081815260046020526040902080546001600160a01b0319166001600160a01b03841690811790915581906129b282611f71565b6001600160a01b03167f8c5be1e5ebec7d5bd14f71427d1e84f3dd0314c0f7b2291e5b200ac8c7c3b92560405160405180910390a45050565b60006129f682612960565b612a575760405162461bcd60e51b815260206004820152602c60248201527f4552433732313a206f70657261746f7220717565727920666f72206e6f6e657860448201526b34b9ba32b73a103a37b5b2b760a11b6064820152608401610878565b6000612a6283611f71565b9050806001600160a01b0316846001600160a01b03161480612a895750612a898185612917565b806123dd5750836001600160a01b0316612aa284610810565b6001600160a01b031614949350505050565b826001600160a01b0316612ac782611f71565b6001600160a01b031614612b2b5760405162461bcd60e51b815260206004820152602560248201527f4552433732313a207472616e736665722066726f6d20696e636f72726563742060448201526437bbb732b960d91b6064820152608401610878565b6001600160a01b038216612b8d5760405162461bcd60e51b8152602060048201526024808201527f4552433732313a207472616e7366657220746f20746865207a65726f206164646044820152637265737360e01b6064820152608401610878565b612b9860008261297d565b6001600160a01b0383166000908152600360205260408120805460019290612bc1908490613c7a565b90915550506001600160a01b0382166000908152600360205260408120805460019290612bef908490613c4e565b909155505060008181526002602052604080822080546001600160a01b0319166001600160a01b0386811691821790925591518493918716917fddf252ad1be2c89b69c2b068fc378daa952ba7f163c4a11628f55a4df523b3ef91a4505050565b6000612c60600780546001019055565b6000612c6b60075490565b9050612c773382612ee7565b6105ca818461301a565b600081831015612c915782612c93565b815b9392505050565b816001600160a01b0316836001600160a01b03161415612cfc5760405162461bcd60e51b815260206004820152601960248201527f4552433732313a20617070726f766520746f2063616c6c6572000000000000006044820152606401610878565b6001600160a01b03838116600081815260056020908152604080832094871680845294825291829020805460ff191686151590811790915591519182527f17307eab39ab6107e8899845ad3d59bd9653f200f220920489ca2b5937696c31910160405180910390a3505050565b612d74848484612ab4565b612d80848484846130a5565b6122685760405162461bcd60e51b815260040161087890613ac5565b6060612da782612960565b612e0b5760405162461bcd60e51b815260206004820152602f60248201527f4552433732314d657461646174613a2055524920717565727920666f72206e6f60448201526e3732bc34b9ba32b73a103a37b5b2b760891b6064820152608401610878565b6000612e2260408051602081019091526000815290565b90506000815111612e425760405180602001604052806000815250612c93565b80612e4c846131b2565b604051602001612e5d9291906138ee565b6040516020818303038152906040529392505050565b6000805b8351811015612edd57826001600160a01b0316848281518110612eaa57634e487b7160e01b600052603260045260246000fd5b60200260200101516001600160a01b03161415612ecb5760019150506105ca565b80612ed581613cf2565b915050612e77565b5060009392505050565b6001600160a01b038216612f3d5760405162461bcd60e51b815260206004820181905260248201527f4552433732313a206d696e7420746f20746865207a65726f20616464726573736044820152606401610878565b612f4681612960565b15612f935760405162461bcd60e51b815260206004820152601c60248201527f4552433732313a20746f6b656e20616c7265616479206d696e746564000000006044820152606401610878565b6001600160a01b0382166000908152600360205260408120805460019290612fbc908490613c4e565b909155505060008181526002602052604080822080546001600160a01b0319166001600160a01b03861690811790915590518392907fddf252ad1be2c89b69c2b068fc378daa952ba7f163c4a11628f55a4df523b3ef908290a45050565b61302382612960565b6130865760405162461bcd60e51b815260206004820152602e60248201527f45524337323155524953746f726167653a2055524920736574206f66206e6f6e60448201526d32bc34b9ba32b73a103a37b5b2b760911b6064820152608401610878565b600082815260066020908152604090912082516109ae928401906132cc565b60006001600160a01b0384163b156131a757604051630a85bd0160e11b81526001600160a01b0385169063150b7a02906130e990339089908890889060040161391d565b602060405180830381600087803b15801561310357600080fd5b505af1925050508015613133575060408051601f3d908101601f191682019092526131309181019061369c565b60015b61318d573d808015613161576040519150601f19603f3d011682016040523d82523d6000602084013e613166565b606091505b5080516131855760405162461bcd60e51b815260040161087890613ac5565b805181602001fd5b6001600160e01b031916630a85bd0160e11b1490506123dd565b506001949350505050565b6060816131d65750506040805180820190915260018152600360fc1b602082015290565b8160005b811561320057806131ea81613cf2565b91506131f99050600a83613c66565b91506131da565b60008167ffffffffffffffff81111561322957634e487b7160e01b600052604160045260246000fd5b6040519080825280601f01601f191660200182016040528015613253576020820181803683370190505b5090505b84156123dd57613268600183613c7a565b9150613275600a86613d0d565b613280906030613c4e565b60f81b8183815181106132a357634e487b7160e01b600052603260045260246000fd5b60200101906001600160f81b031916908160001a9053506132c5600a86613c66565b9450613257565b8280546132d890613cbd565b90600052602060002090601f0160209004810192826132fa5760008555613340565b82601f1061331357805160ff1916838001178555613340565b82800160010185558215613340579182015b82811115613340578251825591602001919060010190613325565b5061334c929150613458565b5090565b828054828255906000526020600020908101928215613340579160200282015b8281111561334057825182546001600160a01b0319166001600160a01b03909116178255602090920191600190910190613370565b8280548282559060005260206000209081019282156133405791602002820182811115613340578251825591602001919060010190613325565b6040518060a001604052806000815260200160006001600160a01b0316815260200160008152602001600015158152602001606081525090565b6040518060c00160405280600081526020016060815260200160006001600160a01b031681526020016000815260200160608152602001606081525090565b5b8082111561334c5760008155600101613459565b600067ffffffffffffffff8084111561348857613488613d4d565b604051601f8501601f19908116603f011681019082821181831017156134b0576134b0613d4d565b816040528093508581528686860111156134c957600080fd5b858560208301376000602087830101525050509392505050565b80356001600160a01b03811681146134fa57600080fd5b919050565b803580151581146134fa57600080fd5b600082601f83011261351f578081fd5b612c938383356020850161346d565b60006020828403121561353f578081fd5b612c93826134e3565b6000806040838503121561355a578081fd5b613563836134e3565b9150613571602084016134e3565b90509250929050565b60008060006060848603121561358e578081fd5b613597846134e3565b92506135a5602085016134e3565b9150604084013590509250925092565b600080600080608085870312156135ca578081fd5b6135d3856134e3565b93506135e1602086016134e3565b925060408501359150606085013567ffffffffffffffff811115613603578182fd5b8501601f81018713613613578182fd5b6136228782356020840161346d565b91505092959194509250565b60008060408385031215613640578182fd5b613649836134e3565b9150613571602084016134ff565b60008060408385031215613669578182fd5b613672836134e3565b946020939093013593505050565b600060208284031215613691578081fd5b8135612c9381613d63565b6000602082840312156136ad578081fd5b8151612c9381613d63565b6000602082840312156136c9578081fd5b813567ffffffffffffffff8111156136df578182fd5b6123dd8482850161350f565b6000806000606084860312156136ff578283fd5b833567ffffffffffffffff811115613715578384fd5b6137218682870161350f565b9660208601359650604090950135949350505050565b600060208284031215613748578081fd5b5035919050565b60008060408385031215613761578182fd5b82359150613571602084016134ff565b60008060408385031215613783578182fd5b50508035926020909101359150565b6000815180845260208085019450808401835b838110156137ca5781516001600160a01b0316875295820195908201906001016137a5565b509495945050505050565b6000815180845260208085019450808401835b838110156137ca578151875295820195908201906001016137e8565b6000815180845261381c816020860160208601613c91565b601f01601f19169290920160200192915050565b805182526000602082015160c0602085015261384f60c0850182613804565b905060018060a01b03604084015116604085015260608301516060850152608083015184820360808601526138848282613792565b91505060a083015184820360a086015261389e82826137d5565b95945050505050565b8051825260018060a01b036020820151166020830152604081015160408301526060810151151560608301526000608082015160a060808501526123dd60a0850182613792565b60008351613900818460208801613c91565b835190830190613914818360208801613c91565b01949350505050565b6001600160a01b038581168252841660208201526040810183905260806060820181905260009061395090830184613804565b9695505050505050565b6000602080830181845280855180835260408601915060408160051b8701019250838701855b828110156139ae57603f1988860301845261399c858351613830565b94509285019290850190600101613980565b5092979650505050505050565b602080825282518282018190526000919060409081850190868401855b82811015613a2a578151805185528681015187860152858101516001600160a01b0390811687870152606080830151909116908601526080908101519085015260a090930192908501906001016139d8565b5091979650505050505050565b6000602080830181845280855180835260408601915060408160051b8701019250838701855b828110156139ae57603f19888603018452613a798583516138a7565b94509285019290850190600101613a5d565b602081526000612c936020830184613804565b6020808252600d908201526c139195081b9bdd08199bdd5b99609a1b604082015260600190565b60208082526032908201527f4552433732313a207472616e7366657220746f206e6f6e20455243373231526560408201527131b2b4bb32b91034b6b83632b6b2b73a32b960711b606082015260800190565b60208082526017908201527f436f6c6c656374696f6e20646f6e277420657869737465000000000000000000604082015260600190565b60208082526031908201527f4552433732313a207472616e736665722063616c6c6572206973206e6f74206f6040820152701ddb995c881b9bdc88185c1c1c9bdd9959607a1b606082015260800190565b602081526000612c936020830184613830565b602081526000612c9360208301846138a7565b8681526000602060c081840152613bdf60c0840189613804565b6001600160a01b038881166040860152606085018890528482036080860152865180835283880192840190855b81811015613c2a578451841683529385019391850191600101613c0c565b505085810360a0870152613c3e81886137d5565b9c9b505050505050505050505050565b60008219821115613c6157613c61613d21565b500190565b600082613c7557613c75613d37565b500490565b600082821015613c8c57613c8c613d21565b500390565b60005b83811015613cac578181015183820152602001613c94565b838111156122685750506000910152565b600181811c90821680613cd157607f821691505b602082108114156111a957634e487b7160e01b600052602260045260246000fd5b6000600019821415613d0657613d06613d21565b5060010190565b600082613d1c57613d1c613d37565b500690565b634e487b7160e01b600052601160045260246000fd5b634e487b7160e01b600052601260045260246000fd5b634e487b7160e01b600052604160045260246000fd5b6001600160e01b031981168114613d7957600080fd5b5056fea2646970667358221220a17469c1478df684d5c983cce3ab90838cc3ec424fc3eabff2b92346a36cd44564736f6c63430008040033",
  "linkReferences": {},
  "deployedLinkReferences": {}
}